:020000040800F2
:1000000000500020D5040008250400082F04000833
:1000100000000000000000000000000000000000E0
:10002000000000000000000000000000350400088F
:1000300000000000000000003F0400084904000820
:1000400025050008250500082505000825050008E8
:1000500025050008250500082505000825050008D8
:1000600025050008250500082505000825050008C8
:1000700025050008250500082505000825050008B8
:1000800025050008250500082505000800000000DA
:100090002505000825050008250500082505000898
:1000A0002505000825050008250500082505000888
:1000B0002505000825050008250500082505000878
:1000C00010B5064C2378002B07D1054B002B02D02E
:1000D000044800E000BF0123237010BD040000208D
:1000E000000000003C160008044B10B5002B03D0A4
:1000F0000349044800E000BF10BDC04600000000F6
:10010000080000203C160008002243088B4274D3EC
:1001100003098B425FD3030A8B4244D3030B8B4208
:1001200028D3030C8B420DD3FF22090212BA030C11
:100130008B4202D31212090265D0030B8B4219D3F2
:1001400000E0090AC30B8B4201D3CB03C01A524112
:10015000830B8B4201D38B03C01A5241430B8B425A
:1001600001D34B03C01A5241030B8B4201D30B0343
:10017000C01A5241C30A8B4201D3CB02C01A52416A
:10018000830A8B4201D38B02C01A5241430A8B422D
:1001900001D34B02C01A5241030A8B4201D30B0216
:1001A000C01A5241CDD2C3098B4201D3CB01C01A30
:1001B000524183098B4201D38B01C01A524143093A
:1001C0008B4201D34B01C01A524103098B4201D328
:1001D0000B01C01A5241C3088B4201D3CB00C01A95
:1001E000524183088B4201D38B00C01A524143080D
:1001F0008B4201D34B00C01A5241411A00D2014632
:10020000524110467047FFE701B5002000F006F8A4
:1002100002BDC0460029F7D076E770477047C04658
:1002200090B589B000AF0C243B19180014231A00B4
:10023000002101F0FBF9344BDA6A334B04210A4305
:10024000DA62314BDB6A04221340BB60BB682E4B81
:10025000DA6A2D4B80210A43DA622B4BDB6A80225B
:1002600013407B607B68284BDA6A274B01210A43E5
:10027000DA62254BDB6A012213403B603B68A02316
:10028000DB0500222021180000F0FEFB3B19802234
:1002900092011A603B191D4A5A603B1900229A606C
:1002A0003B191B4A1900100000F070FA3B190C2290
:1002B0001A603B1902225A603B1900229A603B19CE
:1002C0000322DA603B1904221A613A19A023DB05E4
:1002D0001100180000F05AFA21007B1820221A6041
:1002E0007B1801225A607B1800229A607B1800223A
:1002F000DA607A18A023DB051100180000F046FA36
:10030000C046BD4609B090BD00100240000021105B
:100310000008005080B500AF00F006F900F00CF8BE
:10032000FFF77EFFA023DB052021180000F0C9FBAA
:10033000642000F059F9F5E790B595B000AF1824A6
:100340003B19180038231A00002101F06FF93B1DFA
:10035000180014231A00002101F068F9224B1B68D1
:10036000224A1A40204B802109010A431A602100C9
:100370007B1802221A607B180122DA607B18102297
:100380001A617B1802229A627B180022DA627B18BB
:100390008022D2021A637B188022D2035A637B1810
:1003A000180000F0A1FB031E01D000F021F83B1D56
:1003B0000F221A603B1D03225A603B1D00229A60E7
:1003C0003B1D0022DA603B1D00221A613B1D01210A
:1003D000180000F059FF031E01D000F009F8C046D4
:1003E000BD4615B090BDC04600700040FFE7FFFF5E
:1003F00080B500AFC046BD4680BD000080B500AFEF
:10040000074B5A6B064B01210A435A63044B9A6B04
:10041000034B802149050A439A63C046BD4680BD0F
:100420000010024080B500AFC046BD4680BD80B51B
:1004300000AFFEE780B500AFC046BD4680BD80B5C9
:1004400000AFC046BD4680BD80B500AF00F0B6F835
:10045000C046BD4680BD000080B500AF174B1A688E
:10046000164B802149000A431A60144BDA68134B7B
:1004700013490A40DA60114B1A68104B11490A40BF
:100480001A600E4B9A680D4B01218A439A600B4B00
:100490001A680A4B0C490A401A60084BDA68074B85
:1004A0000A490A40DA60054B00221A61084B802293
:1004B00012059A60C046BD4680BDC046001002408D
:1004C0000C40FF88F6FFF6FEFFFFFBFFFFFF02FF79
:1004D00000ED00E00D488546002103E00C4B5B5821
:1004E000435004310B480C4B42189A42F6D30B4A46
:1004F00002E0002313600432094B9A42F9D3FFF75C
:10050000ABFF01F06FF8FFF705FFFEE7005000209A
:1005100078160008000000200400002004000020DD
:1005200024000020FEE7000080B582B000AFFB1D74
:1005300000221A700B4B1A680A4B40210A431A60BA
:10054000002000F011F8031E03D0FB1D01221A70D9
:1005500001E0FFF753FFFB1D1B781800BD4602B0FA
:1005600080BDC0460020024080B584B000AF7860F6
:100570000F23FB1800221A700F4B1A68FA239900F8
:100580001000FFF7C1FD0300180000F0F2F8031E91
:1005900004D00F23FB1801221A7006E079680123AA
:1005A0005B420022180000F0CFF80F23FB181B78E5
:1005B0001800BD4604B080BD0000002080B500AF2B
:1005C000034B1B685A1C024B1A60C046BD4680BDD7
:1005D0002000002080B500AF024B1B681800BD460C
:1005E00080BDC0462000002080B584B000AF786098
:1005F000FFF7F0FF0300BB607B68FB60FB68013323
:1006000002D0FB680133FB60C046FFF7E3FF020046
:10061000BB68D31AFA689A42F7D8C046BD4604B000
:1006200080BD000090B583B000AF02003960FB1DB3
:100630001A70FB1D1B787F2B32D92F4AFB1D1B78AC
:1006400019000F230B40083B9B0806339B00D3186F
:1006500004331B68FA1D1278110003220A40D200ED
:10066000FF2191400A00D2431A4011003B689B01D0
:10067000FF221A40FB1D1B78180003230340DB00F8
:100680009A401D48FB1D1B781C000F232340083B8C
:100690009B080A4306339B00C31804331A6027E003
:1006A000164AFB1D1B785BB29B08C0339B009B580E
:1006B000FA1D1278110003220A40D200FF21914056
:1006C0000A00D2431A4011003B689B01FF221A40E6
:1006D000FB1D1B78180003230340DB009A400748EA
:1006E000FB1D1B785BB29B080A43C0339B001A506A
:1006F000C046BD4603B090BD00ED00E000E100E063
:1007000080B582B000AF78607B68013B0C4A9342B1
:1007100001D9012310E00B4B7A68013A5A6001239A
:100720005B4203211800FFF77DFF064B00229A6011
:10073000044B07221A6000231800BD4602B080BD9A
:10074000FFFFFF0010E000E080B584B000AFB960AB
:100750007A600F217B18021C1A70BA687B181B780C
:100760005BB211001800FFF75DFFC046BD4604B044
:1007700080BD80B582B000AF78607B681800FFF75D
:10078000BFFF03001800BD4602B080BD80B586B033
:1007900000AF7860396000237B610023FB60002399
:1007A0003B6155E13B681B6801217A6991400A0071
:1007B0001340FB60FB68002B00D146E13B685B689F
:1007C000022B03D03B685B68122B23D17B69DA08CC
:1007D0007B6808329200D3583B617B690722134043
:1007E0009B000F229A401300DA433B6913403B61A0
:1007F0003B681A697B6907210B409B009A401300F4
:100800003A6913433B617B69DA087B6808329200DE
:100810003969D1503B685B68012B0BD03B685B6842
:10082000022B07D03B685B68112B03D03B685B68E9
:10083000122B30D17B689B683B617B695B00032294
:100840009A401300DA433B6913403B613B68DA6826
:100850007B695B009A4013003A6913433B617B68F4
:100860003A699A607B685B683B6101227B699A40C8
:100870001300DA433B6913403B613B685B681B092B
:1008800001221A407B699A4013003A6913433B6185
:100890007B683A695A607B681B683B617B695B00D7
:1008A00003229A401300DA433B6913403B613B68E3
:1008B0005B6803221A407B695B009A4013003A6927
:1008C00013433B617B683A691A607B68DB683B6174
:1008D0007B695B0003229A401300DA433B691340B3
:1008E0003B613B689A687B695B009A4013003A69F8
:1008F00013433B617B683A69DA603B685A6880233E
:100900005B05134000D1A0E0574B5A6B564B0121B9
:100910000A435A63554A7B699B0802339B009B58E4
:100920003B617B69032213409B000F229A40130016
:10093000DA433B6913403B617A68A023DB059A42A6
:100940001FD07B684A4A934219D07B68494A934238
:1009500013D07B68484A93420DD07B68474A934244
:1009600007D07B68464A934201D105230AE006235B
:1009700008E0042306E0032304E0022302E001234D
:1009800000E000237A6903210A40920093403A690B
:1009900013433B6135497B699B0802339B003A69ED
:1009A0005A50384B1B683B61FB68DA433B69134084
:1009B0003B613B685A6880235B02134003D03A696D
:1009C000FB6813433B612F4B3A691A602D4B5B6800
:1009D0003B61FB68DA433B6913403B613B685A6803
:1009E00080239B02134003D03A69FB6813433B61A9
:1009F000244B3A695A60234B9B683B61FB68DA439E
:100A00003B6913403B613B685A6880235B0313409A
:100A100003D03A69FB6813433B611A4B3A699A6009
:100A2000184BDB683B61FB68DA433B6913403B6171
:100A30003B685A6880239B03134003D03A69FB68E4
:100A400013433B610F4B3A69DA607B6901337B6189
:100A50003B681A687B69DA40131E00D0A2E6C046E4
:100A6000BD4606B080BDC0460010024000000140F7
:100A70000004005000080050000C0050001000500E
:100A8000001C00500004014080B582B000AF7860C7
:100A900008001100BB1C021C1A807B1C0A1C1A7067
:100AA0007B1C1B78002B04D0BB1C1A887B689A61C6
:100AB00003E0BB1C1A887B689A62C046BD4602B040
:100AC00080BD80B582B000AF78600A00BB1C1A8080
:100AD0007B685A69BB1C1B885A407B685A61C046B8
:100AE000BD4602B080BD0000B0B58AB000AF7860EE
:100AF0007B68002B02D1012300F0BCFBC84BDB68F4
:100B00000C221340FB61C64BDA6880235B02134062
:100B1000BB617B681B680122134000D17EE0FB694A
:100B2000082B07D0FB690C2B12D1BA6980235B021A
:100B30009A420DD1BA4B1A6880239B02134000D110
:100B40006BE07B685B68002B67D1012300F092FBB0
:100B50007B685A6880235B029A4207D1B04B1A68BF
:100B6000AF4B802149020A431A6027E07B685A682C
:100B7000A023DB029A420ED1A94B1A68A84B802110
:100B8000C9020A431A60A64B1A68A54B8021490284
:100B90000A431A6012E0A24B1A68A14BA1490A400D
:100BA0001A609F4B1A6880235B021340FB60FB684E
:100BB0009B4B1A689A4B9C490A401A607B685B6899
:100BC000002B15D0FFF706FD03007B6109E0FFF75E
:100BD00001FD02007B69D31A642B02D9032300F0C4
:100BE00049FB8F4B1A6880239B021340EFD015E01E
:100BF000FFF7F0FC03007B6108E0FFF7EBFC02006D
:100C00007B69D31A642B01D9032333E3844B1A681D
:100C100080239B021340F0D100E0C0467B681B6834
:100C20000222134000D198E07B68DB687B627B6A1C
:100C30002022134009D07A4B1A68794B20210A43AD
:100C40001A607B6A202293437B62FB69042B05D0E8
:100C5000FB690C2B3DD1BB69002B3AD1704B1B6853
:100C60000422134004D07B6A002B01D1012301E34D
:100C70006B4B5B686D4A134019007B681B691A0255
:100C8000674B0A435A60664B1B680922934319005D
:100C9000634B7A6A0A431A6000F020FC0100604B43
:100CA000DB681B090F221340614AD35C0A00DA405B
:100CB000604B1A6013257C190020FFF755FC0300D8
:100CC00023707B191B78002B47D01323FB181B784C
:100CD000D0E27B6A002B27D0514B1B68092293433B
:100CE00019004F4B7A6A0A431A60FFF773FC03003E
:100CF0007B6108E0FFF76EFC02007B69D31A022BD0
:100D000001D90323B6E2464B1B6804221340F1D0FD
:100D1000434B5B68454A134019007B681B691A0204
:100D20003F4B0A435A6018E03D4B1A683C4B012187
:100D30008A431A60FFF74EFC03007B6108E0FFF76F
:100D400049FC02007B69D31A022B01D9032391E2EB
:100D5000334B1B6804221340F1D17B681B681022BF
:100D6000134000D19FE0FB69002B3FD12C4B1A6848
:100D700080239B00134005D07B68DB69002B01D1E9
:100D8000012377E2264B5B682B4A134019007B68EE
:100D90005A6A234B0A435A60214B5B681B02190AAB
:100DA0007B681B6A1A061E4B0A435A607B685B6AA3
:100DB0005B0B0133802212029A40194BDB681B093E
:100DC0000F210B401A49CB5CDA401A4B1A601325ED
:100DD0007C190020FFF7C8FB030023707B191B78E8
:100DE000002B60D01323FB181B7843E27B68DB6980
:100DF000002B3ED00A4B1A68094B802149000A4358
:100E00001A60FFF7E7FB03007B6117E0FFF7E2FBE7
:100E100002007B69D31A022B10D903232AE2C046B1
:100E200000100240FFFFFEFFFFFFFBFFFFE0FFFFA0
:100E30005416000800000020FF1FFFFFC64B1A6871
:100E400080239B001340E1D0C34B5B68C34A13402F
:100E500019007B685A6AC04B0A435A60BE4B5B68F4
:100E60001B02190A7B681B6A1A06BB4B0A435A60AD
:100E700019E0B94B1A68B84BB9490A401A60FFF734
:100E8000A9FB03007B6108E0FFF7A4FB02007B697C
:100E9000D31A022B01D90323ECE1AF4B1A6880234C
:100EA0009B001340F0D17B681B680822134036D0AA
:100EB0007B685B69002B19D0A74B1A6DA64B0121EB
:100EC0000A431A65FFF786FB03007B6108E0FFF722
:100ED00081FB02007B69D31A022B01D90323C9E1EC
:100EE0009D4B1B6D02221340F1D018E09A4B1A6DF6
:100EF000994B01218A431A65FFF76CFB03007B6164
:100F000008E0FFF767FB02007B69D31A022B01D9C7
:100F10000323AFE1904B1B6D02221340F1D17B689C
:100F20001B680422134000D1AFE02323FB180022EA
:100F30001A70894B9A6B80235B0513400AD1864B4C
:100F40009A6B854B802149050A439A632323FB183A
:100F500001221A70834B1A6880235B0013401AD158
:100F6000804B1A687F4B802149000A431A60FFF7C3
:100F700031FB03007B6108E0FFF72CFB02007B697B
:100F8000D31A642B01D9032374E1764B1A688023AA
:100F90005B001340F0D07B689A6880235B009A4224
:100FA00007D16D4B1A6D6C4B802149000A431A65BD
:100FB00031E07B689B68002B0CD1674B1A6D664B48
:100FC00067490A401A65644B1A6D634B66490A40CB
:100FD0001A6520E07B689A68A023DB009A420ED154
:100FE0005D4B1A6D5C4B8021C9000A431A655A4B50
:100FF0001A6D594B802149000A431A650BE0564B84
:101000001A6D554B56490A401A65534B1A6D524B8F
:1010100055490A401A657B689B68002B15D0FFF77D
:10102000D9FA03007B6109E0FFF7D4FA02007B697B
:10103000D31A4E4A934201D903231BE1464B1A6D42
:1010400080239B001340EFD014E0FFF7C3FA0300A6
:101050007B6109E0FFF7BEFA02007B69D31A434ABD
:10106000934201D9032305E13B4B1A6D80239B007A
:101070001340EFD12323FB181B78012B05D1364BEE
:101080009A6B354B3A490A409A637B681B68202269
:10109000134049D07B689B69002B26D02E4B9A6861
:1010A0002D4B01210A439A602B4B5A6B2A4B01218D
:1010B0000A435A632F4B1A6A2E4B802189010A4337
:1010C0001A62FFF787FA03007B6108E0FFF782FAF4
:1010D00002007B69D31A022B01D90323CAE01E4BFD
:1010E0009B6802221340F1D01EE01B4B9A681A4BFA
:1010F00001218A439A601F4B1A6A1E4B1E490A40FF
:101100001A62FFF767FA03007B6108E0FFF762FAF3
:1011100002007B69D31A022B01D90323AAE00E4BEC
:101120009B6802221340F1D17B689B6A002B00D19F
:101130009FE0FB690C2B00D178E07B689B6A022B57
:1011400059D1054B1A68044B0C490A401A60FFF745
:1011500041FA03007B611CE000100240FF1FFFFF0B
:10116000FFFEFFFF00700040FFFBFFFF8813000041
:10117000FFFFFFEF00000140FFDFFFFFFFFFFFFE6B
:10118000FFF728FA02007B69D31A022B01D9032347
:1011900070E03A4B1A6880239B041340F0D1374B20
:1011A000DB68374A134019007B68DA6A7B681B6B7F
:1011B0001A437B685B6B1A43304B0A43DA602F4B50
:1011C0001A682E4B802149040A431A60FFF702FA7D
:1011D00003007B6108E0FFF7FDF902007B69D31A89
:1011E000022B01D9032345E0244B1A6880239B047A
:1011F0001340F0D03DE0214B1A68204B21490A40B2
:101200001A60FFF7E7F903007B6108E0FFF7E2F9F6
:1012100002007B69D31A022B01D903232AE0174B62
:101220001A6880239B041340F0D122E07B689B6AFC
:10123000012B01D101231DE0104BDB68BB61BA69B2
:1012400080235B021A407B68DB6A9A420FD1BA693D
:10125000F0239B031A407B681B6B9A4207D1BA6943
:10126000C0231B041A407B685B6B9A4201D00123A8
:1012700000E000231800BD460AB0B0BD00100240D7
:10128000FFFF02FFFFFFFFFEB0B584B000AF786044
:1012900039607B68002B01D101230DE1884B1B686D
:1012A000012213403A689A4211D9854B1B680122EA
:1012B00093431900824B3A680A431A60804B1B68BB
:1012C000012213403A689A4201D00123F4E07B687E
:1012D0001B680222134009D07A4BDB68F02293434B
:1012E00019007B689A68774B0A43DA607B681B6851
:1012F0000122134000D189E07B685B68022B07D193
:10130000704B1A6880239B02134020D10123D3E045
:101310007B685B68032B07D16A4B1A6880239B04A8
:10132000134014D10123C7E07B685B68012B06D111
:10133000644B1B680422134009D10123BCE0614BBC
:101340001A6880239B00134001D10123B4E05D4B58
:10135000DB680322934319007B685A68594B0A43A0
:10136000DA60FFF737F90300FB607B685B68022BEC
:1013700011D109E0FFF72EF90200FB68D31A524A97
:10138000934201D9032397E04E4BDB680C221340B4
:10139000082BEFD13AE07B685B68032B11D109E0A1
:1013A000FFF718F90200FB68D31A474A934201D9A4
:1013B000032381E0434BDB680C2213400C2BEFD15D
:1013C00024E07B685B68012B1BD109E0FFF702F981
:1013D0000200FB68D31A3C4A934201D903236BE015
:1013E000384BDB680C221340042BEFD10EE0FFF7E3
:1013F000F1F80200FB68D31A334A934201D9032360
:101400005AE0304BDB680C221340F0D12C4B1B68A8
:10141000012213403A689A4211D2294B1B680122DB
:1014200093431900264B3A680A431A60244B1B6801
:10143000012213403A689A4201D001233CE07B68C4
:101440001B680422134009D01E4BDB681F4A13405F
:1014500019007B68DA681B4B0A43DA607B681B68FB
:10146000082213400AD0174BDB68194A13401900B1
:101470007B681B69DA00134B0A43DA6000F02EF830
:101480000100104BDB681B090F221340114AD35C8B
:101490000A00DA40104B1A600B257C190020FFF778
:1014A00063F8030023707B191B78002B03D00B23F8
:1014B000FB181B7800E000231800BD4604B0B0BD47
:1014C000002002400010024088130000FFF8FFFFD8
:1014D000FFC7FFFF541600080000002080B586B04B
:1014E00000AF3B4BDB68FB60FB680C221340082B12
:1014F0000ED00C2B0FD0042B57D1354B1B6810226C
:10150000134002D0334B3B615DE0334B3B615AE00B
:10151000324B3B6157E0FB689B0C0F221340304A73
:10152000D35CBB60FB689B0D0322134001337B60DF
:10153000274BDA6880235B0213400FD0B9680A009A
:101540005201521A93019B1ADB005B185B02796807
:101550001800FEF7D9FD03007B6123E01C4B1B68DC
:10156000102213400FD0B9680A005201521A930199
:101570009B1ADB005B181B0279681800FEF7C4FD9C
:1015800003007B610EE0B9680A005201521A930110
:101590009B1ADB005B189B0279681800FEF7B4FD0C
:1015A00003007B617B693B610DE0094B5B685B0B72
:1015B000072213403B603B680133802212029A40AD
:1015C00013003B61C0463B691800BD4606B080BDB4
:1015D0000010024000093D000024F40000127A00CF
:1015E0006416000870B500260C4D0D4C641BA41049
:1015F000A64209D1002600F021F80A4D0A4C641BCE
:10160000A410A64205D170BDB300EB58984701362F
:10161000EEE7B300EB5898470136F2E77016000882
:1016200070160008701600087416000803001218DF
:10163000934200D1704719700133F9E7F8B5C046FD
:10164000F8BC08BC9E467047F8B5C046F8BC08BC5C
:041650009E467047FB
:10165400000000000000000001020304060708095E
:0C166400030406080C10182030000000E1
:04167000E900000885
:04167400C1000008A9
:04167800000020004E
:04000005080004D516
:00000001FF
